{
  "contractName": "Election",
  "abi": [
    {
      "inputs": [],
      "payable": false,
      "stateMutability": "nonpayable",
      "type": "constructor"
    },
    {
      "constant": true,
      "inputs": [
        {
          "internalType": "uint256",
          "name": "",
          "type": "uint256"
        }
      ],
      "name": "candidates",
      "outputs": [
        {
          "internalType": "uint256",
          "name": "candidate_id",
          "type": "uint256"
        },
        {
          "internalType": "string",
          "name": "first_name",
          "type": "string"
        },
        {
          "internalType": "string",
          "name": "last_name",
          "type": "string"
        },
        {
          "internalType": "uint256",
          "name": "dob",
          "type": "uint256"
        },
        {
          "internalType": "string",
          "name": "candidate_info",
          "type": "string"
        },
        {
          "internalType": "string",
          "name": "candidate_short_desc",
          "type": "string"
        },
        {
          "internalType": "string",
          "name": "candidate_long_desc",
          "type": "string"
        },
        {
          "internalType": "string",
          "name": "candidate_awards",
          "type": "string"
        },
        {
          "internalType": "uint256",
          "name": "voteCount",
          "type": "uint256"
        }
      ],
      "payable": false,
      "stateMutability": "view",
      "type": "function"
    },
    {
      "constant": true,
      "inputs": [],
      "name": "count",
      "outputs": [
        {
          "internalType": "uint256",
          "name": "",
          "type": "uint256"
        }
      ],
      "payable": false,
      "stateMutability": "view",
      "type": "function"
    },
    {
      "constant": true,
      "inputs": [],
      "name": "totalVotesCasted",
      "outputs": [
        {
          "internalType": "uint256",
          "name": "",
          "type": "uint256"
        }
      ],
      "payable": false,
      "stateMutability": "view",
      "type": "function"
    },
    {
      "constant": true,
      "inputs": [
        {
          "internalType": "uint256",
          "name": "",
          "type": "uint256"
        }
      ],
      "name": "voters",
      "outputs": [
        {
          "internalType": "uint256",
          "name": "voter_id",
          "type": "uint256"
        },
        {
          "internalType": "bool",
          "name": "hasVoted",
          "type": "bool"
        }
      ],
      "payable": false,
      "stateMutability": "view",
      "type": "function"
    },
    {
      "constant": false,
      "inputs": [
        {
          "internalType": "string",
          "name": "_first_name",
          "type": "string"
        },
        {
          "internalType": "string",
          "name": "_last_name",
          "type": "string"
        },
        {
          "internalType": "uint256",
          "name": "_dob",
          "type": "uint256"
        },
        {
          "internalType": "string",
          "name": "_candidate_info",
          "type": "string"
        },
        {
          "internalType": "string",
          "name": "_candidate_short_desc",
          "type": "string"
        },
        {
          "internalType": "string",
          "name": "_candidate_long_desc",
          "type": "string"
        },
        {
          "internalType": "string",
          "name": "_candidate_awards",
          "type": "string"
        }
      ],
      "name": "addCandidate",
      "outputs": [],
      "payable": false,
      "stateMutability": "nonpayable",
      "type": "function"
    },
    {
      "constant": false,
      "inputs": [
        {
          "internalType": "uint256",
          "name": "_candidateId",
          "type": "uint256"
        },
        {
          "internalType": "uint256",
          "name": "_voterId",
          "type": "uint256"
        }
      ],
      "name": "vote",
      "outputs": [],
      "payable": false,
      "stateMutability": "nonpayable",
      "type": "function"
    },
    {
      "constant": true,
      "inputs": [],
      "name": "getCandidates",
      "outputs": [
        {
          "components": [
            {
              "internalType": "uint256",
              "name": "candidate_id",
              "type": "uint256"
            },
            {
              "internalType": "string",
              "name": "first_name",
              "type": "string"
            },
            {
              "internalType": "string",
              "name": "last_name",
              "type": "string"
            },
            {
              "internalType": "uint256",
              "name": "dob",
              "type": "uint256"
            },
            {
              "internalType": "string",
              "name": "candidate_info",
              "type": "string"
            },
            {
              "internalType": "string",
              "name": "candidate_short_desc",
              "type": "string"
            },
            {
              "internalType": "string",
              "name": "candidate_long_desc",
              "type": "string"
            },
            {
              "internalType": "string",
              "name": "candidate_awards",
              "type": "string"
            },
            {
              "internalType": "uint256",
              "name": "voteCount",
              "type": "uint256"
            }
          ],
          "internalType": "struct Election.Candidate[]",
          "name": "",
          "type": "tuple[]"
        }
      ],
      "payable": false,
      "stateMutability": "view",
      "type": "function"
    },
    {
      "constant": true,
      "inputs": [],
      "name": "getTotalVotes",
      "outputs": [
        {
          "internalType": "uint256",
          "name": "",
          "type": "uint256"
        }
      ],
      "payable": false,
      "stateMutability": "view",
      "type": "function"
    },
    {
      "constant": true,
      "inputs": [],
      "name": "getElectionResult",
      "outputs": [
        {
          "components": [
            {
              "internalType": "uint256",
              "name": "candidate_id",
              "type": "uint256"
            },
            {
              "internalType": "string",
              "name": "first_name",
              "type": "string"
            },
            {
              "internalType": "string",
              "name": "last_name",
              "type": "string"
            },
            {
              "internalType": "uint256",
              "name": "voteCount",
              "type": "uint256"
            }
          ],
          "internalType": "struct Election.ElectionResult[]",
          "name": "",
          "type": "tuple[]"
        }
      ],
      "payable": false,
      "stateMutability": "view",
      "type": "function"
    }
  ],
  "bytecode": "0x6080604052600160025560016003553480156200001b57600080fd5b506200010a6040518060400160405280600581526020017f54756c73690000000000000000000000000000000000000000000000000000008152506040518060400160405280600781526020017f476162626172640000000000000000000000000000000000000000000000000081525062f0948a60405180606001604052806032815260200162003349603291396040518060c00160405280609a8152602001620032af609a9139604051806103a0016040528061036d81526020016200204661036d9139604051806106800160405280610645815260200162002c6a61064591396200032460201b60201c565b620002146040518060400160405280600781526020017f48696c6c617279000000000000000000000000000000000000000000000000008152506040518060400160405280600781526020017f436c696e746f6e0000000000000000000000000000000000000000000000000081525062f0948a6040518060400160405280601681526020017f44656d6f6372617469632050617279204c6561646572000000000000000000008152506040518060c001604052806081815260200162002be960819139604051806101a0016040528061016581526020016200337b6101659139604051806101c001604052806101878152602001620023b361018791396200032460201b60201c565b6200031e6040518060400160405280600681526020017f446f6e616c6400000000000000000000000000000000000000000000000000008152506040518060400160405280600581526020017f5472756d7000000000000000000000000000000000000000000000000000000081525062f0948a6040518060400160405280601481526020017f52657075626c69632050617279204c656164657200000000000000000000000081525060405180608001604052806058815260200162001dfc60589139604051806106e001604052806106af81526020016200253a6106af91396040518061022001604052806101f2815260200162001e546101f291396200032460201b60201c565b62000576565b6200032e6200047b565b60405180610120016040528060025481526020018981526020018881526020018781526020018681526020018581526020018481526020018381526020016000815250905080600160006002548152602001908152602001600020600082015181600001556020820151816001019080519060200190620003b1929190620004c7565b506040820151816002019080519060200190620003d0929190620004c7565b50606082015181600301556080820151816004019080519060200190620003f9929190620004c7565b5060a082015181600501908051906020019062000418929190620004c7565b5060c082015181600601908051906020019062000437929190620004c7565b5060e082015181600701908051906020019062000456929190620004c7565b5061010082015181600801559050506001600254016002819055505050505050505050565b6040518061012001604052806000815260200160608152602001606081526020016000815260200160608152602001606081526020016060815260200160608152602001600081525090565b828054600181600116156101000203166002900490600052602060002090601f016020900481019282601f106200050a57805160ff19168380011785556200053b565b828001600101855582156200053b579182015b828111156200053a5782518255916020019190600101906200051d565b5b5090506200054a91906200054e565b5090565b6200057391905b808211156200056f57600081600090555060010162000555565b5090565b90565b61187680620005866000396000f3fe608060405234801561001057600080fd5b50600436106100935760003560e01c80639a0e7d66116100665780639a0e7d661461012a5780639ea49dbf14610148578063b384abef14610164578063ca3eb44314610180578063da58c7d91461019e57610093565b806306661abd1461009857806306a49fce146100b65780633477ee2e146100d45780637c99279a1461010c575b600080fd5b6100a06101cf565b6040516100ad91906115c0565b60405180910390f35b6100be6101d5565b6040516100cb919061155c565b60405180910390f35b6100ee60048036036100e991908101906111b4565b61065c565b60405161010399989796959493929190611604565b60405180910390f35b610114610a3a565b60405161012191906115c0565b60405180910390f35b610132610a40565b60405161013f91906115c0565b60405180910390f35b610162600480360361015d9190810190611086565b610a4a565b005b61017e600480360361017991908101906111dd565b610b93565b005b610188610c60565b604051610195919061157e565b60405180910390f35b6101b860048036036101b391908101906111b4565b610e87565b6040516101c69291906115db565b60405180910390f35b60025481565b60608060025460405190808252806020026020018201604052801561021457816020015b610201610eb8565b8152602001906001900390816101f95790505b50905060008090505b60025481101561065457600160008281526020019081526020016000206040518061012001604052908160008201548152602001600182018054600181600116156101000203166002900480601f0160208091040260200160405190810160405280929190818152602001828054600181600116156101000203166002900480156102e95780601f106102be576101008083540402835291602001916102e9565b820191906000526020600020905b8154815290600101906020018083116102cc57829003601f168201915b50505050508152602001600282018054600181600116156101000203166002900480601f01602080910402602001604051908101604052809291908181526020018280546001816001161561010002031660029004801561038b5780601f106103605761010080835404028352916020019161038b565b820191906000526020600020905b81548152906001019060200180831161036e57829003601f168201915b5050505050815260200160038201548152602001600482018054600181600116156101000203166002900480601f0160208091040260200160405190810160405280929190818152602001828054600181600116156101000203166002900480156104375780601f1061040c57610100808354040283529160200191610437565b820191906000526020600020905b81548152906001019060200180831161041a57829003601f168201915b50505050508152602001600582018054600181600116156101000203166002900480601f0160208091040260200160405190810160405280929190818152602001828054600181600116156101000203166002900480156104d95780601f106104ae576101008083540402835291602001916104d9565b820191906000526020600020905b8154815290600101906020018083116104bc57829003601f168201915b50505050508152602001600682018054600181600116156101000203166002900480601f01602080910402602001604051908101604052809291908181526020018280546001816001161561010002031660029004801561057b5780601f106105505761010080835404028352916020019161057b565b820191906000526020600020905b81548152906001019060200180831161055e57829003601f168201915b50505050508152602001600782018054600181600116156101000203166002900480601f01602080910402602001604051908101604052809291908181526020018280546001816001161561010002031660029004801561061d5780601f106105f25761010080835404028352916020019161061d565b820191906000526020600020905b81548152906001019060200180831161060057829003601f168201915b5050505050815260200160088201548152505082828151811061063c57fe5b6020026020010181905250808060010191505061021d565b508091505090565b6001602052806000526040600020600091509050806000015490806001018054600181600116156101000203166002900480601f01602080910402602001604051908101604052809291908181526020018280546001816001161561010002031660029004801561070e5780601f106106e35761010080835404028352916020019161070e565b820191906000526020600020905b8154815290600101906020018083116106f157829003601f168201915b505050505090806002018054600181600116156101000203166002900480601f0160208091040260200160405190810160405280929190818152602001828054600181600116156101000203166002900480156107ac5780601f10610781576101008083540402835291602001916107ac565b820191906000526020600020905b81548152906001019060200180831161078f57829003601f168201915b505050505090806003015490806004018054600181600116156101000203166002900480601f0160208091040260200160405190810160405280929190818152602001828054600181600116156101000203166002900480156108505780601f1061082557610100808354040283529160200191610850565b820191906000526020600020905b81548152906001019060200180831161083357829003601f168201915b505050505090806005018054600181600116156101000203166002900480601f0160208091040260200160405190810160405280929190818152602001828054600181600116156101000203166002900480156108ee5780601f106108c3576101008083540402835291602001916108ee565b820191906000526020600020905b8154815290600101906020018083116108d157829003601f168201915b505050505090806006018054600181600116156101000203166002900480601f01602080910402602001604051908101604052809291908181526020018280546001816001161561010002031660029004801561098c5780601f106109615761010080835404028352916020019161098c565b820191906000526020600020905b81548152906001019060200180831161096f57829003601f168201915b505050505090806007018054600181600116156101000203166002900480601f016020809104026020016040519081016040528092919081815260200182805460018160011615610100020316600290048015610a2a5780601f106109ff57610100808354040283529160200191610a2a565b820191906000526020600020905b815481529060010190602001808311610a0d57829003601f168201915b5050505050908060080154905089565b60035481565b6000600354905090565b610a52610f04565b60405180610120016040528060025481526020018981526020018881526020018781526020018681526020018581526020018481526020018381526020016000815250905080600160006002548152602001908152602001600020600082015181600001556020820151816001019080519060200190610ad3929190610f50565b506040820151816002019080519060200190610af0929190610f50565b50606082015181600301556080820151816004019080519060200190610b17929190610f50565b5060a0820151816005019080519060200190610b34929190610f50565b5060c0820151816006019080519060200190610b51929190610f50565b5060e0820151816007019080519060200190610b6e929190610f50565b5061010082015181600801559050506001600254016002819055505050505050505050565b60008082815260200190815260200160002060010160009054906101000a900460ff1615610bf6576040517f08c379a0000000000000000000000000000000000000000000000000000000008152600401610bed906115a0565b60405180910390fd5b6001600083815260200190815260200160002060080160008154809291906001019190505550600160008083815260200190815260200160002060010160006101000a81548160ff0219169083151502179055506003600081548092919060010191905055505050565b606080600254604051908082528060200260200182016040528015610c9f57816020015b610c8c610fd0565b815260200190600190039081610c845790505b50905060008090505b600254811015610e7f57604051806080016040528060016000848152602001908152602001600020600001548152602001600160008481526020019081526020016000206001018054600181600116156101000203166002900480601f016020809104026020016040519081016040528092919081815260200182805460018160011615610100020316600290048015610d835780601f10610d5857610100808354040283529160200191610d83565b820191906000526020600020905b815481529060010190602001808311610d6657829003601f168201915b50505050508152602001600160008481526020019081526020016000206002018054600181600116156101000203166002900480601f016020809104026020016040519081016040528092919081815260200182805460018160011615610100020316600290048015610e375780601f10610e0c57610100808354040283529160200191610e37565b820191906000526020600020905b815481529060010190602001808311610e1a57829003601f168201915b505050505081526020016001600084815260200190815260200160002060080154815250828281518110610e6757fe5b60200260200101819052508080600101915050610ca8565b508091505090565b60006020528060005260406000206000915090508060000154908060010160009054906101000a900460ff16905082565b6040518061012001604052806000815260200160608152602001606081526020016000815260200160608152602001606081526020016060815260200160608152602001600081525090565b6040518061012001604052806000815260200160608152602001606081526020016000815260200160608152602001606081526020016060815260200160608152602001600081525090565b828054600181600116156101000203166002900490600052602060002090601f016020900481019282601f10610f9157805160ff1916838001178555610fbf565b82800160010185558215610fbf579182015b82811115610fbe578251825591602001919060010190610fa3565b5b509050610fcc9190610ff8565b5090565b6040518060800160405280600081526020016060815260200160608152602001600081525090565b61101a91905b80821115611016576000816000905550600101610ffe565b5090565b90565b600082601f83011261102e57600080fd5b813561104161103c826116e8565b6116bb565b9150808252602083016020830185838301111561105d57600080fd5b6110688382846117c9565b50505092915050565b6000813590506110808161181c565b92915050565b600080600080600080600060e0888a0312156110a157600080fd5b600088013567ffffffffffffffff8111156110bb57600080fd5b6110c78a828b0161101d565b975050602088013567ffffffffffffffff8111156110e457600080fd5b6110f08a828b0161101d565b96505060406111018a828b01611071565b955050606088013567ffffffffffffffff81111561111e57600080fd5b61112a8a828b0161101d565b945050608088013567ffffffffffffffff81111561114757600080fd5b6111538a828b0161101d565b93505060a088013567ffffffffffffffff81111561117057600080fd5b61117c8a828b0161101d565b92505060c088013567ffffffffffffffff81111561119957600080fd5b6111a58a828b0161101d565b91505092959891949750929550565b6000602082840312156111c657600080fd5b60006111d484828501611071565b91505092915050565b600080604083850312156111f057600080fd5b60006111fe85828601611071565b925050602061120f85828601611071565b9150509250929050565b600061122583836113ec565b905092915050565b600061123983836114d4565b905092915050565b600061124c82611734565b611256818561176f565b93508360208202850161126885611714565b8060005b858110156112a457848403895281516112858582611219565b945061129083611755565b925060208a0199505060018101905061126c565b50829750879550505050505092915050565b60006112c18261173f565b6112cb8185611780565b9350836020820285016112dd85611724565b8060005b8581101561131957848403895281516112fa858261122d565b945061130583611762565b925060208a019950506001810190506112e1565b50829750879550505050505092915050565b611334816117b3565b82525050565b60006113458261174a565b61134f8185611791565b935061135f8185602086016117d8565b6113688161180b565b840191505092915050565b600061137e8261174a565b61138881856117a2565b93506113988185602086016117d8565b6113a18161180b565b840191505092915050565b60006113b96012836117a2565b91507f566f74657220616c6561647920766f74656400000000000000000000000000006000830152602082019050919050565b600061012083016000830151611405600086018261153e565b506020830151848203602086015261141d828261133a565b91505060408301518482036040860152611437828261133a565b915050606083015161144c606086018261153e565b5060808301518482036080860152611464828261133a565b91505060a083015184820360a086015261147e828261133a565b91505060c083015184820360c0860152611498828261133a565b91505060e083015184820360e08601526114b2828261133a565b9150506101008301516114c961010086018261153e565b508091505092915050565b60006080830160008301516114ec600086018261153e565b5060208301518482036020860152611504828261133a565b9150506040830151848203604086015261151e828261133a565b9150506060830151611533606086018261153e565b508091505092915050565b611547816117bf565b82525050565b611556816117bf565b82525050565b600060208201905081810360008301526115768184611241565b905092915050565b6000602082019050818103600083015261159881846112b6565b905092915050565b600060208201905081810360008301526115b9816113ac565b9050919050565b60006020820190506115d5600083018461154d565b92915050565b60006040820190506115f0600083018561154d565b6115fd602083018461132b565b9392505050565b60006101208201905061161a600083018c61154d565b818103602083015261162c818b611373565b90508181036040830152611640818a611373565b905061164f606083018961154d565b81810360808301526116618188611373565b905081810360a08301526116758187611373565b905081810360c08301526116898186611373565b905081810360e083015261169d8185611373565b90506116ad61010083018461154d565b9a9950505050505050505050565b6000604051905081810181811067ffffffffffffffff821117156116de57600080fd5b8060405250919050565b600067ffffffffffffffff8211156116ff57600080fd5b601f19601f8301169050602081019050919050565b6000819050602082019050919050565b6000819050602082019050919050565b600081519050919050565b600081519050919050565b600081519050919050565b6000602082019050919050565b6000602082019050919050565b600082825260208201905092915050565b600082825260208201905092915050565b600082825260208201905092915050565b600082825260208201905092915050565b60008115159050919050565b6000819050919050565b82818337600083830152505050565b60005b838110156117f65780820151818401526020810190506117db565b83811115611805576000848401525b50505050565b6000601f19601f8301169050919050565b611825816117bf565b811461183057600080fd5b5056fea365627a7a723158203b1a5fa400e1b68e606ed40a83deec85c20c617dd346e81540c303bab21205436c6578706572696d656e74616cf564736f6c634300051000403435746820616e642063757272656e7420707265736964656e74206f662074686520556e69746564205374617465732c427573696e6573736d616e20616e64202054656c65766973696f6e20706572736f6e616c6974792e496e20313938332c205472756d7020726563656976656420746865204a6577697368204e6174696f6e616c2046756e642054726565206f66204c6966652041776172642c61667465722068652068656c7065642066756e6420746865206275696c64696e67206f662074776f20706c617967726f756e64732c2061207061726b2c20616e642061207265736572766f697220696e2049737261656c2e496e20313938362c68652072656365697665642074686520456c6c69732049736c616e64204d6564616c206f6620486f6e6f7220696e207265636f676e6974696f6e206f662070617472696f7469736d2c20746f6c6572616e63652c2062726f74686572686f6f6420616e64206469766572736974792c20616e6420696e20313939352077617320617761726465642074686520507265736964656e7473204d6564616c2066726f6d207468652046726565646f6d7320466f756e646174696f6e20666f722068697320737570706f7274206f6620796f7574682070726f6772616d732e204c69626572747920556e69766572736974792061776172646564205472756d7020616e20686f6e6f7261727920446f63746f72617465206f6620427573696e65737320696e203230313220616e6420616e20686f6e6f7261727920446f63746f72206f66204c61777320696e2032303137496e20323030322c20476162626172642077617320656c656374656420746f207468652048617761696920486f757365206f6620526570726573656e746174697665732e20476162626172642073657276656420696e2061206669656c64206d65646963616c20756e6974206f6620746865204861776169692041726d79204e6174696f6e616c20477561726420696e20497261712066726f6d203230303420746f203230303520616e6420776173206465706c6f79656420746f204b75776169742066726f6d203230303820746f20323030392061732041726d79204d696c697461727920506f6c69636520706c61746f6f6e206c65616465722e5b335d5b345d5b355d205368652077617320612076696365206368616972206f66207468652044656d6f637261746963204e6174696f6e616c20436f6d6d69747465652066726f6d203230313320746f20323031362c207768656e207368652072657369676e656420746f20656e646f7273652053656e61746f72204265726e69652053616e6465727320666f722074686520323031362044656d6f63726174696320707265736964656e7469616c206e6f6d696e6174696f6e2e4761626261726420737570706f7274732061204d6564696361726520666f7220416c6c206865616c7468206361726520706c616e207368652063616c6c732053696e676c6520506179657220506c757320616e6420737472656e677468656e696e6720526f6520762e205761646520627920636f64696679696e6720697420696e746f206665646572616c206c61772e5b395d2053686520636f2d73706f6e736f726564207468652046616d696c792041637420666f7220706169642066616d696c7920616e64206d65646963616c206c6561766520616e6420656e646f7273656420756e6976657273616c20626173696320696e636f6d652e4761626261726420776173207468652066697273742066656d616c6520636f6d626174207665746572616e20746f2072756e20666f7220707265736964656e742061667465722072756e6e696e6720696e20323032302e204f6e204d617263682031392c20323032302c20476162626172642064726f70706564206f7574206f66207468652032303230207261636520616e6420656e646f7273656420666f726d6572205669636520507265736964656e74204a6f6520426964656e536865207761732068656164206f662074686520576869746520486f757365204d696c6c656e6e69756d20436f756e63696c20616e6420686f73746564204d696c6c656e6e69756d204576656e696e67732c206120736572696573206f66206c65637475726573207468617420646973637573736564206675747572657320737475646965732c206f6e65206f6620776869636820626563616d6520746865206669727374206c6976652073696d756c74616e656f757320776562636173742066726f6d2074686520576869746520486f7573652e20436c696e746f6e20616c736f20637265617465642074686520666972737420576869746520486f757365205363756c70747572652047617264656e2c206c6f636174656420696e20746865204a61637175656c696e65204b656e6e6564792047617264656e2c20776869636820646973706c61796564206c6172676520636f6e74656d706f7261727920416d65726963616e20776f726b73206f6620617274206c6f616e6564206279206d757365756d735472756d7020656e746572656420746865203230313620707265736964656e7469616c207261636520617320612052657075626c6963616e20616e64206465666561746564203136206f746865722063616e6469646174657320696e20746865207072696d61726965732e2048697320706f6c69746963616c20706f736974696f6e732068617665206265656e2064657363726962656420617320706f70756c6973742c2070726f74656374696f6e6973742c20616e64206e6174696f6e616c6973742e2044657370697465206e6f74206265696e67206661766f72656420696e206d6f737420666f726563617374732c2068652077617320656c6563746564206f7665722044656d6f637261746963206e6f6d696e65652048696c6c61727920436c696e746f6e2c20616c74686f756768206865206c6f73742074686520706f70756c617220766f74652e20486520626563616d6520746865206f6c646573742066697273742d7465726d20552e532e20707265736964656e742c5b625d20616e642074686520666972737420776974686f7574207072696f72206d696c6974617279206f7220676f7665726e6d656e7420736572766963652e2048697320656c656374696f6e20616e6420706f6c6963696573206861766520737061726b6564206e756d65726f75732070726f74657374732e205472756d7020686173206d616465206d616e792066616c7365206f72206d69736c656164696e672073746174656d656e747320647572696e67206869732063616d706169676e20616e6420707265736964656e63792e205468652073746174656d656e74732068617665206265656e20646f63756d656e74656420627920666163742d636865636b6572732c20616e6420746865206d65646961206861766520776964656c792064657363726962656420746865207068656e6f6d656e6f6e20617320756e707265636564656e74656420696e20416d65726963616e20706f6c69746963732e204d616e79206f662068697320636f6d6d656e747320616e6420616374696f6e732068617665206265656e20636861726163746572697a65642061732072616369616c6c792063686172676564206f72207261636973742e447572696e672068697320707265736964656e63792c205472756d70206f72646572656420612074726176656c2062616e206f6e20636974697a656e732066726f6d207365766572616c204d75736c696d2d6d616a6f7269747920636f756e74726965732c20636974696e6720736563757269747920636f6e6365726e733b206166746572206c6567616c206368616c6c656e6765732c207468652053757072656d6520436f75727420757068656c642074686520706f6c6963792773207468697264207265766973696f6e2e20486520656e61637465642061207461782d637574207061636b61676520666f7220696e646976696475616c7320616e6420627573696e65737365732c2072657363696e64696e672074686520696e646976696475616c206865616c746820696e737572616e6365206d616e646174652e204865206170706f696e746564204e65696c20476f727375636820616e64204272657474204b6176616e6175676820746f207468652053757072656d6520436f7572742e20496e20666f726569676e20706f6c6963792c205472756d7020686173207075727375656420616e20416d6572696361204669727374206167656e64612c207769746864726177696e672074686520552e532e2066726f6d20746865205472616e732d5061636966696320506172746e657273686970207472616465206e65676f74696174696f6e732c207468652050617269732041677265656d656e74206f6e20636c696d617465206368616e67652c20616e6420746865204972616e206e75636c656172206465616c2e20447572696e6720696e637265617365642074656e73696f6e732077697468204972616e2c206865206f72646572656420746865206b696c6c696e67206f66204972616e69616e2067656e6572616c20516173656d20536f6c65696d616e692e20486520696d706f73656420696d706f727420746172696666732074726967676572696e672061207472616465207761722077697468204368696e612c207265636f676e697a6564204a65727573616c656d20617320746865206361706974616c206f662049737261656c2c20616e6420776974686472657720552e532e2074726f6f707320696e206e6f72746865726e20537972696120746f2061766f6964205475726b65792773206f6666656e73697665206f6e20416d65726963616e2d616c6c696564204b757264732e416d65726963616e20706f6c6974696369616e2c206469706c6f6d61742c206c61777965722c207772697465722c20616e64207075626c696320737065616b657220616e6420736572766564206173204669727374204c616479206f662074686520556e69746564205374617465732066726f6d203139393320746f2032303031332c2054756c73692c20476162626172642c20313938312d30342d31322c20416d65726963616e20706f6c6974696369616e20616e64204861776169692041726d79204e6174696f6e616c2047756172642c2043757272656e7420552e532e20526570726573656e74617469766520666f72204861776169697320326e6420636f6e6772657373696f6e616c206469737472696374202c46697273742048696e6475206d656d626572206f6620436f6e677265737320616e64207468652066697273742053616d6f616e2d416d65726963616e20766f74696e67206d656d626572206f6620436f6e67726573732c20496e20323030322c20476162626172642077617320656c656374656420746f207468652048617761696920486f757365206f6620526570726573656e746174697665732e20476162626172642073657276656420696e2061206669656c64206d65646963616c20756e6974206f6620746865204861776169692041726d79204e6174696f6e616c20477561726420696e20497261712066726f6d203230303420746f203230303520616e6420776173206465706c6f79656420746f204b75776169742066726f6d203230303820746f20323030392061732041726d79204d696c697461727920506f6c69636520706c61746f6f6e206c65616465722e5b335d5b345d5b355d205368652077617320612076696365206368616972206f66207468652044656d6f637261746963204e6174696f6e616c20436f6d6d69747465652066726f6d203230313320746f20323031362c207768656e207368652072657369676e656420746f20656e646f7273652053656e61746f72204265726e69652053616e6465727320666f722074686520323031362044656d6f63726174696320707265736964656e7469616c206e6f6d696e6174696f6e2e4761626261726420737570706f7274732061204d6564696361726520666f7220416c6c206865616c7468206361726520706c616e207368652063616c6c732053696e676c6520506179657220506c757320616e6420737472656e677468656e696e6720526f6520762e205761646520627920636f64696679696e6720697420696e746f206665646572616c206c61772e5b395d2053686520636f2d73706f6e736f726564207468652046616d696c792041637420666f7220706169642066616d696c7920616e64206d65646963616c206c6561766520616e6420656e646f7273656420756e6976657273616c20626173696320696e636f6d652e4761626261726420776173207468652066697273742066656d616c6520636f6d626174207665746572616e20746f2072756e20666f7220707265736964656e742061667465722072756e6e696e6720696e20323032302e204f6e204d617263682031392c20323032302c20476162626172642064726f70706564206f7574206f66207468652032303230207261636520616e6420656e646f7273656420666f726d6572205669636520507265736964656e74204a6f6520426964656e2c204f6e204e6f76656d6265722032352c20323031332c204761626261726420726563656976656420746865204a6f686e20462e204b656e6e656479204e65772046726f6e74696572204177617264206174206120636572656d6f6e792061742074686520496e73746974757465206f6620506f6c6974696373206174204861727661726473204a6f686e20462e204b656e6e656479205363686f6f6c206f6620476f7665726e6d656e7420666f7220686572206566666f727473206f6e20626568616c66206f66207665746572616e732e4f6e204d617263682032362c20323031342c20456c6c65206d6167617a696e6520686f6e6f72656420476162626172642c2077697468206f74686572732c20617420746865204974616c69616e20456d626173737920696e2074686520556e697465642053746174657320647572696e672069747320616e6e75616c20576f6d656e20696e2057617368696e67746f6e20506f776572204c6973742e4f6e204a756c792031352c20323031352c20476162626172642072656365697665642074686520467269656e64206f6620746865204e6174696f6e616c205061726b732041776172642066726f6d20746865204e6174696f6e616c205061726b7320436f6e736572766174696f6e204173736f63696174696f6e2e43757272656e7420552e532e20526570726573656e74617469766520666f72204861776169697320326e6420636f6e6772657373696f6e616c206469737472696374202c46697273742048696e6475206d656d626572206f6620436f6e677265737320616e64207468652066697273742053616d6f616e2d416d65726963616e20766f74696e67206d656d626572206f6620436f6e6772657373416d65726963616e20706f6c6974696369616e20616e64204861776169692041726d79204e6174696f6e616c20477561726453686520736572766564206173204669727374204c616479206f662074686520556e69746564205374617465732066726f6d203139393320746f20323030312c206173206120556e69746564205374617465732073656e61746f722066726f6d204e657720596f726b2066726f6d203230303120746f20323030392c20616e6420617320746865203637746820556e697465642053746174657320736563726574617279206f662073746174652066726f6d203230303920756e74696c20323031332e20436c696e746f6e20626563616d652074686520666972737420776f6d616e20746f206265206e6f6d696e6174656420666f7220707265736964656e74206f662074686520556e69746564205374617465732062792061206d616a6f7220706f6c69746963616c207061727479207768656e2073686520776f6e207468652044656d6f637261746963205061727479206e6f6d696e6174696f6e20696e2032303136",
  "source": "pragma solidity >=0.4.22 <0.7.0;\r\npragma experimental ABIEncoderV2;\r\n\r\ncontract Election  {\r\n\r\n    struct Candidate {\r\n        uint candidate_id;\r\n        string first_name;\r\n        string last_name;\r\n        uint256 dob;\r\n        string candidate_info;\r\n        string candidate_short_desc;\r\n        string candidate_long_desc;\r\n        string candidate_awards;\r\n        uint voteCount;\r\n    }\r\n    \r\n    struct ElectionResult  {\r\n        uint candidate_id;\r\n        string first_name;\r\n        string last_name; \r\n        uint voteCount;\r\n    }\r\n\r\n    struct Voter {\r\n        uint voter_id;\r\n        bool hasVoted;\r\n    }\r\n\r\n    mapping(uint  => Voter) public voters;\r\n\r\n    mapping(uint  => Candidate) public candidates;\r\n\r\n    // Store Candiates Count\r\n    uint public count = 1;\r\n    \r\n    uint public totalVotesCasted = 1;\r\n    \r\n    constructor() public {\r\n        addCandidate(\"Tulsi\",\"Gabbard\",15766666,\"American politician and Hawaii Army National Guard\",\r\n        \"Current U.S. Representative for Hawaiis 2nd congressional district ,First Hindu member of Congress and the first Samoan-American voting member of Congress\",\r\n        \"In 2002, Gabbard was elected to the Hawaii House of Representatives. Gabbard served in a field medical unit of the Hawaii Army National Guard in Iraq from 2004 to 2005 and was deployed to Kuwait from 2008 to 2009 as Army Military Police platoon leader.[3][4][5] She was a vice chair of the Democratic National Committee from 2013 to 2016, when she resigned to endorse Senator Bernie Sanders for the 2016 Democratic presidential nomination.Gabbard supports a Medicare for All health care plan she calls Single Payer Plus and strengthening Roe v. Wade by codifying it into federal law.[9] She co-sponsored the Family Act for paid family and medical leave and endorsed universal basic income.Gabbard was the first female combat veteran to run for president after running in 2020. On March 19, 2020, Gabbard dropped out of the 2020 race and endorsed former Vice President Joe Biden\",\"3, Tulsi, Gabbard, 1981-04-12, American politician and Hawaii Army National Guard, Current U.S. Representative for Hawaiis 2nd congressional district ,First Hindu member of Congress and the first Samoan-American voting member of Congress, In 2002, Gabbard was elected to the Hawaii House of Representatives. Gabbard served in a field medical unit of the Hawaii Army National Guard in Iraq from 2004 to 2005 and was deployed to Kuwait from 2008 to 2009 as Army Military Police platoon leader.[3][4][5] She was a vice chair of the Democratic National Committee from 2013 to 2016, when she resigned to endorse Senator Bernie Sanders for the 2016 Democratic presidential nomination.Gabbard supports a Medicare for All health care plan she calls Single Payer Plus and strengthening Roe v. Wade by codifying it into federal law.[9] She co-sponsored the Family Act for paid family and medical leave and endorsed universal basic income.Gabbard was the first female combat veteran to run for president after running in 2020. On March 19, 2020, Gabbard dropped out of the 2020 race and endorsed former Vice President Joe Biden, On November 25, 2013, Gabbard received the John F. Kennedy New Frontier Award at a ceremony at the Institute of Politics at Harvards John F. Kennedy School of Government for her efforts on behalf of veterans.On March 26, 2014, Elle magazine honored Gabbard, with others, at the Italian Embassy in the United States during its annual Women in Washington Power List.On July 15, 2015, Gabbard received the Friend of the National Parks Award from the National Parks Conservation Association.\");\r\n        \r\n        addCandidate(\"Hillary\",\"Clinton\",15766666,\"Democratic Pary Leader\",\"American politician, diplomat, lawyer, writer, and public speaker and served as First Lady of the United States from 1993 to 2001\",\r\n        \"She served as First Lady of the United States from 1993 to 2001, as a United States senator from New York from 2001 to 2009, and as the 67th United States secretary of state from 2009 until 2013. Clinton became the first woman to be nominated for president of the United States by a major political party when she won the Democratic Party nomination in 2016\",\"She was head of the White House Millennium Council and hosted Millennium Evenings, a series of lectures that discussed futures studies, one of which became the first live simultaneous webcast from the White House. Clinton also created the first White House Sculpture Garden, located in the Jacqueline Kennedy Garden, which displayed large contemporary American works of art loaned by museums\");\r\n       \r\n        addCandidate(\"Donald\",\"Trump\",15766666,\r\n            \"Republic Pary Leader\",\r\n            \"45th and current president of the United States,Businessman and  Television personality.\",\r\n            \"Trump entered the 2016 presidential race as a Republican and defeated 16 other candidates in the primaries. His political positions have been described as populist, protectionist, and nationalist. Despite not being favored in most forecasts, he was elected over Democratic nominee Hillary Clinton, although he lost the popular vote. He became the oldest first-term U.S. president,[b] and the first without prior military or government service. His election and policies have sparked numerous protests. Trump has made many false or misleading statements during his campaign and presidency. The statements have been documented by fact-checkers, and the media have widely described the phenomenon as unprecedented in American politics. Many of his comments and actions have been characterized as racially charged or racist.During his presidency, Trump ordered a travel ban on citizens from several Muslim-majority countries, citing security concerns; after legal challenges, the Supreme Court upheld the policy's third revision. He enacted a tax-cut package for individuals and businesses, rescinding the individual health insurance mandate. He appointed Neil Gorsuch and Brett Kavanaugh to the Supreme Court. In foreign policy, Trump has pursued an America First agenda, withdrawing the U.S. from the Trans-Pacific Partnership trade negotiations, the Paris Agreement on climate change, and the Iran nuclear deal. During increased tensions with Iran, he ordered the killing of Iranian general Qasem Soleimani. He imposed import tariffs triggering a trade war with China, recognized Jerusalem as the capital of Israel, and withdrew U.S. troops in northern Syria to avoid Turkey's offensive on American-allied Kurds.\"\r\n            ,\"In 1983, Trump received the Jewish National Fund Tree of Life Award,after he helped fund the building of two playgrounds, a park, and a reservoir in Israel.In 1986,he received the Ellis Island Medal of Honor in recognition of patriotism, tolerance, brotherhood and diversity, and in 1995 was awarded the Presidents Medal from the Freedoms Foundation for his support of youth programs. Liberty University awarded Trump an honorary Doctorate of Business in 2012 and an honorary Doctor of Laws in 2017\");\r\n    \r\n    }\r\n       \r\n    \r\n    function addCandidate(string memory _first_name,string memory _last_name,uint256 _dob,string memory _candidate_info,\r\n                            string memory _candidate_short_desc,string memory _candidate_long_desc,string memory _candidate_awards) public{\r\n        Candidate memory candidate = Candidate(count,_first_name,_last_name,_dob,_candidate_info,_candidate_short_desc,_candidate_long_desc,_candidate_awards,0);\r\n        candidates[count] = candidate;\r\n        count = count + 1;\r\n    }\r\n    function vote (uint _candidateId,uint _voterId) public {\r\n        //valdiate User has not Voted twice\r\n        require(!voters[_voterId].hasVoted,\"Voter aleady voted\");\r\n        // update candidate vote Count\r\n        candidates[_candidateId].voteCount++;\r\n        //Update voter info to true\r\n        voters[_voterId].hasVoted = true;\r\n        //Increment Total Vote Count for Auditing\r\n        totalVotesCasted++;\r\n    }\r\n\r\n    function getCandidates() public view returns (Candidate[] memory){\r\n      Candidate[] memory candidateList = new Candidate[](count);\r\n      for (uint i = 0; i < count; i++) {\r\n          candidateList[i] = candidates[i];\r\n      }\r\n      return candidateList;\r\n    }\r\n    \r\n    function getTotalVotes() public view returns(uint){\r\n        return totalVotesCasted;\r\n    }\r\n    \r\n    function getElectionResult() public view returns (ElectionResult[] memory) {\r\n        ElectionResult [] memory result = new ElectionResult[](count);\r\n        for(uint  i =0; i < count; i++){\r\n            result[i] = ElectionResult(candidates[i].candidate_id,candidates[i].first_name,candidates[i].last_name,candidates[i].voteCount);\r\n        }\r\n        return result;\r\n    }\r\n}",
  "sourcePath": "/Users/sachinsharma/updated_evoting/contracts/Election.sol",
  "compiler": {
    "name": "solc",
    "version": "0.5.16+commit.9c3226ce.Emscripten.clang"
  },
  "schemaVersion": "3.0.23",
  "updatedAt": "2020-04-21T22:24:10.249Z",
  "networkType": "ethereum",
  "devdoc": {
    "methods": {}
  },
  "userdoc": {
    "methods": {}
  }
}