{
  "contractName": "VoterContract",
  "abi": [
    {
      "inputs": [],
      "payable": false,
      "stateMutability": "nonpayable",
      "type": "constructor"
    },
    {
      "constant": true,
      "inputs": [],
      "name": "count",
      "outputs": [
        {
          "internalType": "uint256",
          "name": "",
          "type": "uint256"
        }
      ],
      "payable": false,
      "stateMutability": "view",
      "type": "function"
    },
    {
      "constant": true,
      "inputs": [
        {
          "internalType": "uint256",
          "name": "",
          "type": "uint256"
        }
      ],
      "name": "voters",
      "outputs": [
        {
          "internalType": "address",
          "name": "voterAddress",
          "type": "address"
        },
        {
          "internalType": "uint256",
          "name": "user_id",
          "type": "uint256"
        },
        {
          "internalType": "string",
          "name": "first_name",
          "type": "string"
        },
        {
          "internalType": "string",
          "name": "last_name",
          "type": "string"
        },
        {
          "internalType": "string",
          "name": "ssn",
          "type": "string"
        },
        {
          "internalType": "bool",
          "name": "voted",
          "type": "bool"
        },
        {
          "internalType": "string",
          "name": "username",
          "type": "string"
        },
        {
          "internalType": "string",
          "name": "password",
          "type": "string"
        },
        {
          "internalType": "string",
          "name": "hash",
          "type": "string"
        }
      ],
      "payable": false,
      "stateMutability": "view",
      "type": "function"
    },
    {
      "constant": false,
      "inputs": [
        {
          "internalType": "string",
          "name": "_first_name",
          "type": "string"
        },
        {
          "internalType": "string",
          "name": "_last_name",
          "type": "string"
        },
        {
          "internalType": "string",
          "name": "_ssn",
          "type": "string"
        },
        {
          "internalType": "string",
          "name": "_username",
          "type": "string"
        },
        {
          "internalType": "string",
          "name": "_password",
          "type": "string"
        },
        {
          "internalType": "string",
          "name": "_hash",
          "type": "string"
        }
      ],
      "name": "register",
      "outputs": [],
      "payable": false,
      "stateMutability": "nonpayable",
      "type": "function"
    },
    {
      "constant": false,
      "inputs": [
        {
          "internalType": "uint256",
          "name": "_user_id",
          "type": "uint256"
        }
      ],
      "name": "userVoted",
      "outputs": [],
      "payable": false,
      "stateMutability": "nonpayable",
      "type": "function"
    },
    {
      "constant": true,
      "inputs": [
        {
          "internalType": "uint256",
          "name": "_user_id",
          "type": "uint256"
        }
      ],
      "name": "getVoterInformation",
      "outputs": [
        {
          "components": [
            {
              "internalType": "address",
              "name": "voterAddress",
              "type": "address"
            },
            {
              "internalType": "uint256",
              "name": "user_id",
              "type": "uint256"
            },
            {
              "internalType": "string",
              "name": "first_name",
              "type": "string"
            },
            {
              "internalType": "string",
              "name": "last_name",
              "type": "string"
            },
            {
              "internalType": "string",
              "name": "ssn",
              "type": "string"
            },
            {
              "internalType": "bool",
              "name": "voted",
              "type": "bool"
            },
            {
              "internalType": "string",
              "name": "username",
              "type": "string"
            },
            {
              "internalType": "string",
              "name": "password",
              "type": "string"
            },
            {
              "internalType": "string",
              "name": "hash",
              "type": "string"
            }
          ],
          "internalType": "struct VoterContract.Voter",
          "name": "",
          "type": "tuple"
        }
      ],
      "payable": false,
      "stateMutability": "view",
      "type": "function"
    },
    {
      "constant": true,
      "inputs": [],
      "name": "getVoterCount",
      "outputs": [
        {
          "internalType": "uint256",
          "name": "",
          "type": "uint256"
        }
      ],
      "payable": false,
      "stateMutability": "view",
      "type": "function"
    },
    {
      "constant": true,
      "inputs": [],
      "name": "getVoterList",
      "outputs": [
        {
          "components": [
            {
              "internalType": "address",
              "name": "voterAddress",
              "type": "address"
            },
            {
              "internalType": "uint256",
              "name": "user_id",
              "type": "uint256"
            },
            {
              "internalType": "string",
              "name": "first_name",
              "type": "string"
            },
            {
              "internalType": "string",
              "name": "last_name",
              "type": "string"
            },
            {
              "internalType": "string",
              "name": "ssn",
              "type": "string"
            },
            {
              "internalType": "bool",
              "name": "voted",
              "type": "bool"
            },
            {
              "internalType": "string",
              "name": "username",
              "type": "string"
            },
            {
              "internalType": "string",
              "name": "password",
              "type": "string"
            },
            {
              "internalType": "string",
              "name": "hash",
              "type": "string"
            }
          ],
          "internalType": "struct VoterContract.Voter[]",
          "name": "",
          "type": "tuple[]"
        }
      ],
      "payable": false,
      "stateMutability": "view",
      "type": "function"
    },
    {
      "constant": true,
      "inputs": [
        {
          "internalType": "string",
          "name": "_username",
          "type": "string"
        },
        {
          "internalType": "string",
          "name": "_password",
          "type": "string"
        }
      ],
      "name": "login",
      "outputs": [
        {
          "internalType": "bool",
          "name": "",
          "type": "bool"
        }
      ],
      "payable": false,
      "stateMutability": "view",
      "type": "function"
    }
  ],
  "bytecode": "0x608060405234801561001057600080fd5b50611cba806100206000396000f3fe608060405234801561001057600080fd5b50600436106100885760003560e01c806358467dbc1161005b57806358467dbc14610101578063b28d92ae14610131578063cd20a3531461014f578063da58c7d91461017f57610088565b806306661abd1461008d578063104ace02146100ab57806311174a29146100c7578063397e0eeb146100e5575b600080fd5b6100956101b7565b6040516100a29190611ac0565b60405180910390f35b6100c560048036036100c09190810190611456565b6101bd565b005b6100cf610375565b6040516100dc9190611ac0565b60405180910390f35b6100ff60048036036100fa919081019061156f565b61037f565b005b61011b600480360361011691908101906113ea565b6103b6565b6040516101289190611a83565b60405180910390f35b6101396104b2565b6040516101469190611a61565b60405180910390f35b6101696004803603610164919081019061156f565b610995565b6040516101769190611a9e565b60405180910390f35b6101996004803603610194919081019061156f565b610e09565b6040516101ae999897969594939291906119aa565b60405180910390f35b60015481565b6101c5611214565b6040518061012001604052803373ffffffffffffffffffffffffffffffffffffffff168152602001600154815260200188815260200187815260200186815260200160001515815260200185815260200184815260200183815250905080600080600154815260200190815260200160002060008201518160000160006101000a81548173ffffffffffffffffffffffffffffffffffffffff021916908373ffffffffffffffffffffffffffffffffffffffff1602179055506020820151816001015560408201518160020190805190602001906102a4929190611278565b5060608201518160030190805190602001906102c1929190611278565b5060808201518160040190805190602001906102de929190611278565b5060a08201518160050160006101000a81548160ff02191690831515021790555060c082015181600601908051906020019061031b929190611278565b5060e0820151816007019080519060200190610338929190611278565b50610100820151816008019080519060200190610356929190611278565b5090505060016000815480929190600101919050555050505050505050565b6000600154905090565b6000806000838152602001908152602001600020905060018160050160006101000a81548160ff0219169083151502179055505050565b600080600090505b6001548110156104a65760008060008381526020019081526020016000209050846040516020016103ef919061197c565b60405160208183030381529060405280519060200120816006016040516020016104199190611993565b6040516020818303038152906040528051906020012014156104985783604051602001610446919061197c565b60405160208183030381529060405280519060200120816007016040516020016104709190611993565b604051602081830303815290604052805190602001201415610497576001925050506104ac565b5b5080806001019150506103be565b50600090505b92915050565b6060806001546040519080825280602002602001820160405280156104f157816020015b6104de6112f8565b8152602001906001900390816104d65790505b50905060008090505b60015481101561098d57600080828152602001908152602001600020604051806101200160405290816000820160009054906101000a900473ffffffffffffffffffffffffffffffffffffffff1673ffffffffffffffffffffffffffffffffffffffff1673ffffffffffffffffffffffffffffffffffffffff16815260200160018201548152602001600282018054600181600116156101000203166002900480601f01602080910402602001604051908101604052809291908181526020018280546001816001161561010002031660029004801561061b5780601f106105f05761010080835404028352916020019161061b565b820191906000526020600020905b8154815290600101906020018083116105fe57829003601f168201915b50505050508152602001600382018054600181600116156101000203166002900480601f0160208091040260200160405190810160405280929190818152602001828054600181600116156101000203166002900480156106bd5780601f10610692576101008083540402835291602001916106bd565b820191906000526020600020905b8154815290600101906020018083116106a057829003601f168201915b50505050508152602001600482018054600181600116156101000203166002900480601f01602080910402602001604051908101604052809291908181526020018280546001816001161561010002031660029004801561075f5780601f106107345761010080835404028352916020019161075f565b820191906000526020600020905b81548152906001019060200180831161074257829003601f168201915b505050505081526020016005820160009054906101000a900460ff16151515158152602001600682018054600181600116156101000203166002900480601f01602080910402602001604051908101604052809291908181526020018280546001816001161561010002031660029004801561081c5780601f106107f15761010080835404028352916020019161081c565b820191906000526020600020905b8154815290600101906020018083116107ff57829003601f168201915b50505050508152602001600782018054600181600116156101000203166002900480601f0160208091040260200160405190810160405280929190818152602001828054600181600116156101000203166002900480156108be5780601f10610893576101008083540402835291602001916108be565b820191906000526020600020905b8154815290600101906020018083116108a157829003601f168201915b50505050508152602001600882018054600181600116156101000203166002900480601f0160208091040260200160405190810160405280929190818152602001828054600181600116156101000203166002900480156109605780601f1061093557610100808354040283529160200191610960565b820191906000526020600020905b81548152906001019060200180831161094357829003601f168201915b50505050508152505082828151811061097557fe5b602002602001018190525080806001019150506104fa565b508091505090565b61099d611214565b600080838152602001908152602001600020604051806101200160405290816000820160009054906101000a900473ffffffffffffffffffffffffffffffffffffffff1673ffffffffffffffffffffffffffffffffffffffff1673ffffffffffffffffffffffffffffffffffffffff16815260200160018201548152602001600282018054600181600116156101000203166002900480601f016020809104026020016040519081016040528092919081815260200182805460018160011615610100020316600290048015610ab45780601f10610a8957610100808354040283529160200191610ab4565b820191906000526020600020905b815481529060010190602001808311610a9757829003601f168201915b50505050508152602001600382018054600181600116156101000203166002900480601f016020809104026020016040519081016040528092919081815260200182805460018160011615610100020316600290048015610b565780601f10610b2b57610100808354040283529160200191610b56565b820191906000526020600020905b815481529060010190602001808311610b3957829003601f168201915b50505050508152602001600482018054600181600116156101000203166002900480601f016020809104026020016040519081016040528092919081815260200182805460018160011615610100020316600290048015610bf85780601f10610bcd57610100808354040283529160200191610bf8565b820191906000526020600020905b815481529060010190602001808311610bdb57829003601f168201915b505050505081526020016005820160009054906101000a900460ff16151515158152602001600682018054600181600116156101000203166002900480601f016020809104026020016040519081016040528092919081815260200182805460018160011615610100020316600290048015610cb55780601f10610c8a57610100808354040283529160200191610cb5565b820191906000526020600020905b815481529060010190602001808311610c9857829003601f168201915b50505050508152602001600782018054600181600116156101000203166002900480601f016020809104026020016040519081016040528092919081815260200182805460018160011615610100020316600290048015610d575780601f10610d2c57610100808354040283529160200191610d57565b820191906000526020600020905b815481529060010190602001808311610d3a57829003601f168201915b50505050508152602001600882018054600181600116156101000203166002900480601f016020809104026020016040519081016040528092919081815260200182805460018160011615610100020316600290048015610df95780601f10610dce57610100808354040283529160200191610df9565b820191906000526020600020905b815481529060010190602001808311610ddc57829003601f168201915b5050505050815250509050919050565b60006020528060005260406000206000915090508060000160009054906101000a900473ffffffffffffffffffffffffffffffffffffffff1690806001015490806002018054600181600116156101000203166002900480601f016020809104026020016040519081016040528092919081815260200182805460018160011615610100020316600290048015610ee15780601f10610eb657610100808354040283529160200191610ee1565b820191906000526020600020905b815481529060010190602001808311610ec457829003601f168201915b505050505090806003018054600181600116156101000203166002900480601f016020809104026020016040519081016040528092919081815260200182805460018160011615610100020316600290048015610f7f5780601f10610f5457610100808354040283529160200191610f7f565b820191906000526020600020905b815481529060010190602001808311610f6257829003601f168201915b505050505090806004018054600181600116156101000203166002900480601f01602080910402602001604051908101604052809291908181526020018280546001816001161561010002031660029004801561101d5780601f10610ff25761010080835404028352916020019161101d565b820191906000526020600020905b81548152906001019060200180831161100057829003601f168201915b5050505050908060050160009054906101000a900460ff1690806006018054600181600116156101000203166002900480601f0160208091040260200160405190810160405280929190818152602001828054600181600116156101000203166002900480156110ce5780601f106110a3576101008083540402835291602001916110ce565b820191906000526020600020905b8154815290600101906020018083116110b157829003601f168201915b505050505090806007018054600181600116156101000203166002900480601f01602080910402602001604051908101604052809291908181526020018280546001816001161561010002031660029004801561116c5780601f106111415761010080835404028352916020019161116c565b820191906000526020600020905b81548152906001019060200180831161114f57829003601f168201915b505050505090806008018054600181600116156101000203166002900480601f01602080910402602001604051908101604052809291908181526020018280546001816001161561010002031660029004801561120a5780601f106111df5761010080835404028352916020019161120a565b820191906000526020600020905b8154815290600101906020018083116111ed57829003601f168201915b5050505050905089565b604051806101200160405280600073ffffffffffffffffffffffffffffffffffffffff168152602001600081526020016060815260200160608152602001606081526020016000151581526020016060815260200160608152602001606081525090565b828054600181600116156101000203166002900490600052602060002090601f016020900481019282601f106112b957805160ff19168380011785556112e7565b828001600101855582156112e7579182015b828111156112e65782518255916020019190600101906112cb565b5b5090506112f4919061135c565b5090565b604051806101200160405280600073ffffffffffffffffffffffffffffffffffffffff168152602001600081526020016060815260200160608152602001606081526020016000151581526020016060815260200160608152602001606081525090565b61137e91905b8082111561137a576000816000905550600101611362565b5090565b90565b600082601f83011261139257600080fd5b81356113a56113a082611b08565b611adb565b915080825260208301602083018583830111156113c157600080fd5b6113cc838284611c0d565b50505092915050565b6000813590506113e481611c60565b92915050565b600080604083850312156113fd57600080fd5b600083013567ffffffffffffffff81111561141757600080fd5b61142385828601611381565b925050602083013567ffffffffffffffff81111561144057600080fd5b61144c85828601611381565b9150509250929050565b60008060008060008060c0878903121561146f57600080fd5b600087013567ffffffffffffffff81111561148957600080fd5b61149589828a01611381565b965050602087013567ffffffffffffffff8111156114b257600080fd5b6114be89828a01611381565b955050604087013567ffffffffffffffff8111156114db57600080fd5b6114e789828a01611381565b945050606087013567ffffffffffffffff81111561150457600080fd5b61151089828a01611381565b935050608087013567ffffffffffffffff81111561152d57600080fd5b61153989828a01611381565b92505060a087013567ffffffffffffffff81111561155657600080fd5b61156289828a01611381565b9150509295509295509295565b60006020828403121561158157600080fd5b600061158f848285016113d5565b91505092915050565b60006115a48383611876565b905092915050565b6115b581611bc5565b82525050565b6115c481611bc5565b82525050565b60006115d582611b59565b6115df8185611b87565b9350836020820285016115f185611b34565b8060005b8581101561162d578484038952815161160e8582611598565b945061161983611b7a565b925060208a019950506001810190506115f5565b50829750879550505050505092915050565b61164881611bd7565b82525050565b61165781611bd7565b82525050565b600061166882611b6f565b6116728185611bba565b9350611682818560208601611c1c565b80840191505092915050565b600061169982611b64565b6116a38185611b98565b93506116b3818560208601611c1c565b6116bc81611c4f565b840191505092915050565b60006116d282611b64565b6116dc8185611ba9565b93506116ec818560208601611c1c565b6116f581611c4f565b840191505092915050565b60008154600181166000811461171d576001811461174257611786565b607f600283041661172e8187611bba565b955060ff1983168652808601935050611786565b600282046117508187611bba565b955061175b85611b44565b60005b8281101561177d5781548189015260018201915060208101905061175e565b82880195505050505b505092915050565b6000610120830160008301516117a760008601826115ac565b5060208301516117ba602086018261195e565b50604083015184820360408601526117d2828261168e565b915050606083015184820360608601526117ec828261168e565b91505060808301518482036080860152611806828261168e565b91505060a083015161181b60a086018261163f565b5060c083015184820360c0860152611833828261168e565b91505060e083015184820360e086015261184d828261168e565b915050610100830151848203610100860152611869828261168e565b9150508091505092915050565b60006101208301600083015161188f60008601826115ac565b5060208301516118a2602086018261195e565b50604083015184820360408601526118ba828261168e565b915050606083015184820360608601526118d4828261168e565b915050608083015184820360808601526118ee828261168e565b91505060a083015161190360a086018261163f565b5060c083015184820360c086015261191b828261168e565b91505060e083015184820360e0860152611935828261168e565b915050610100830151848203610100860152611951828261168e565b9150508091505092915050565b61196781611c03565b82525050565b61197681611c03565b82525050565b6000611988828461165d565b915081905092915050565b600061199f8284611700565b915081905092915050565b6000610120820190506119c0600083018c6115bb565b6119cd602083018b61196d565b81810360408301526119df818a6116c7565b905081810360608301526119f381896116c7565b90508181036080830152611a0781886116c7565b9050611a1660a083018761164e565b81810360c0830152611a2881866116c7565b905081810360e0830152611a3c81856116c7565b9050818103610100830152611a5181846116c7565b90509a9950505050505050505050565b60006020820190508181036000830152611a7b81846115ca565b905092915050565b6000602082019050611a98600083018461164e565b92915050565b60006020820190508181036000830152611ab8818461178e565b905092915050565b6000602082019050611ad5600083018461196d565b92915050565b6000604051905081810181811067ffffffffffffffff82111715611afe57600080fd5b8060405250919050565b600067ffffffffffffffff821115611b1f57600080fd5b601f19601f8301169050602081019050919050565b6000819050602082019050919050565b60008190508160005260206000209050919050565b600081519050919050565b600081519050919050565b600081519050919050565b6000602082019050919050565b600082825260208201905092915050565b600082825260208201905092915050565b600082825260208201905092915050565b600081905092915050565b6000611bd082611be3565b9050919050565b60008115159050919050565b600073ffffffffffffffffffffffffffffffffffffffff82169050919050565b6000819050919050565b82818337600083830152505050565b60005b83811015611c3a578082015181840152602081019050611c1f565b83811115611c49576000848401525b50505050565b6000601f19601f8301169050919050565b611c6981611c03565b8114611c7457600080fd5b5056fea365627a7a723158205c9db31e6511d10156dfa2bcd658c857d255a6e26296b2998c600df9f909790f6c6578706572696d656e74616cf564736f6c63430005100040",
  "source": "pragma solidity ^0.5.0;\npragma experimental ABIEncoderV2;\n\n\ncontract VoterContract   {\n    struct Voter {\n        address voterAddress;\n        uint user_id;\n        string first_name;\n        string last_name;\n        string ssn;\n        bool voted;\n        string username;\n        string password;\n        string hash;\n    }\n    \n    // Store Voters\n    // Fetch Voters\n    mapping(uint  => Voter) public voters;\n    // Store Voters Count\n    uint public count;\n    \n    constructor() public {\n        \n    }\n    \n    function register(string memory _first_name,string memory _last_name,string memory _ssn,string memory _username,string memory _password,string  memory _hash) public {\n        Voter memory voter = Voter(msg.sender,count,_first_name,_last_name,_ssn,false,_username,_password,_hash);\n        voters[count] = voter;\n        count++;\n    }\n    \n    function userVoted(uint  _user_id) public {\n\n        Voter storage voter = voters[_user_id];\n        voter.voted = true;\n    }\n    \n    function getVoterInformation(uint _user_id) public view returns (Voter memory) {\n        return voters[_user_id];\n    }\n    \n    function getVoterCount() public view returns (uint){\n        return count;\n    }\n    \n    function  getVoterList () public view returns (Voter[] memory){\n        Voter[] memory list = new Voter[](count);\n        for(uint i =0 ; i < count; i++){\n            list[i] = voters[i];\n        }\n        return list;\n    }\n    \n    \n    function login(string memory _username,string memory _password) public view returns (bool){\n        for(uint i =0; i < count; i++){\n            Voter storage voter = voters[i];\n            if (keccak256(abi.encodePacked(voter.username)) == keccak256(abi.encodePacked(_username))) {\n                if (keccak256(abi.encodePacked(voter.password)) == keccak256(abi.encodePacked(_password))) {\n                    return true;\n                }\n            }\n        }\n        return false;\n    }\n    \n    \n}",
  "sourcePath": "/Users/sachinsharma/updated_evoting/contracts/VoterContract.sol",
  "compiler": {
    "name": "solc",
    "version": "0.5.16+commit.9c3226ce.Emscripten.clang"
  },
  "schemaVersion": "3.0.23",
  "updatedAt": "2020-04-21T22:24:10.255Z",
  "networkType": "ethereum",
  "devdoc": {
    "methods": {}
  },
  "userdoc": {
    "methods": {}
  }
}